:020000040800F2
:1000000040660020A9020008A94600082B3C000811
:100010002D3F0008F9070008FD5800080000000007
:1000200000000000000000000000000011020008B5
:10003000990C000800000000550200083B51000820
:10004000C3020008C3020008C3020008C30200087C
:10005000C3020008C3020008C3020008C30200086C
:10006000C3020008C3020008C3020008C30200085C
:10007000C3020008C3020008C3020008C30200084C
:10008000C3020008C3020008C3020008C30200083C
:10009000C3020008C3020008C3020008C30200082C
:1000A000C3020008C3020008C3020008C30200081C
:1000B000A9510008E551000821520008C3020008B8
:1000C000C3020008C3020008C3020008C3020008FC
:1000D000C3020008F1570008C3020008C302000869
:1000E00099110008C3020008C3020008C3020008F7
:1000F000C3020008C3020008C3020008C3020008CC
:10010000C3020008C302000891520008C30200089D
:10011000C3020008C3020008C3020008C3020008AB
:10012000C3020008C3020008C3020008C30200089B
:1001300000F002F800F05CF80AA090E8000C82449D
:100140008344AAF10107DA4501D100F051F8AFF27A
:10015000090EBAE80F0013F0010F18BFFB1A43F0A5
:10016000010318477C8400009C8400000A444FF07F
:10017000000C10F8013B13F0070408BF10F8014B06
:100180001D1108BF10F8015B641E05D010F8016B4B
:10019000641E01F8016BF9D113F0080F1EBF10F8AF
:1001A000014BAD1C0C1B09D16D1E58BF01F801CBD2
:1001B000FAD505E014F8016B01F8016B6D1EF9D555
:1001C0009142D6D37047000000230024002500266A
:1001D000103A28BF78C1FBD8520728BF30C148BFAA
:1001E0000B607047002070471FB51FBD10B510BDD4
:1001F00000F0C8F91146FFF7F7FF05F04BFD00F0DE
:10020000E6F903B4FFF7F2FF03BC05F015FC0000AC
:10021000224B19680868B0E8F00F80F30988BFF333
:100220006F8F4FF0000080F311884EF00D0E704775
:100230000000000006480068006880F3088862B685
:1002400061B6BFF34F8FBFF36F8F00DF00BF00BFFA
:1002500008ED00E0EFF30980BFF36F8F0F4B1A68D2
:1002600020E9F00F106008B54FF0500080F31188BE
:10027000BFF34F8FBFF36F8F06F09AFD4FF0000072
:1002800080F31188BDE8084019680868B0E8F00FED
:1002900080F30988BFF36F8F704700BFCC01002047
:1002A000EFF3058070470000094880470948004780
:1002B000FEE7FEE7FEE7FEE7FEE7FEE7FEE7FEE716
:1002C000FEE7FEE704480549054A064B7047000073
:1002D00051510008310100084060002040660020B4
:1002E00040620020406200207047B2F120030AD52E
:1002F000C2F1200320FA02F001FA03F321FA02F11D
:1003000040EA0300704721FA03F04FF00001704704
:100310000FB4044910B503AA029800F0C9F810BC44
:100320005DF814FB340000202DE9F0410E46044630
:10033000002020622046E168884730B3252805D098
:10034000D4E901219047206A401CF2E7E168204689
:1003500000278847050018D0A5F14100192802D8C8
:1003600020354FF400673246294620462760FFF7C4
:1003700039FF40B1012804D0F61D26F007060836E3
:10038000D8E7361DD6E72846DAE7206ABDE8F081CF
:10039000032A40F2308010F0030C00F0158011F8B1
:1003A000013BBCF1020F624498BF11F801CB00F889
:1003B000013B38BF11F8013BA2F1040298BF00F8DD
:1003C00001CB38BF00F8013B11F0030300F082803D
:1003D000083AC0F0088051F8043B083A51F804CBC1
:1003E000A0E80810F5E7121D5CBF51F8043B40F887
:1003F000043BAFF30080D20724BF11F8013B11F892
:1004000001CB48BF11F8012B24BF00F8013B00F8D5
:1004100001CB48BF00F8012B704702F0FF0343EA0D
:10042000032242EA024200F089B84FF0000200B510
:10043000134694469646203922BFA0E80C50A0E807
:100440000C50B1F12001BFF4F7AF090728BFA0E8B5
:100450000C5048BF0CC05DF804EB890028BF40F881
:10046000042B08BF704748BF20F8022B11F0804FC3
:1004700018BF00F8012B70477047704770477047EE
:1004800001694A1C02610878704700B58FB0CDE958
:1004900001310021059105497944CDE90310114648
:1004A0006846FFF741FF0FB000BD0000E5FFFFFF0A
:1004B000074B70B50D467B44FFF7E7FF044628461F
:1004C00000F05CF810B14FF0FF3070BD204670BDF9
:1004D000BF57000010B5203AC0F00B80B1E81850AB
:1004E000203AA0E81850B1E81850A0E81850BFF41E
:1004F000F5AF5FEA027C24BFB1E81850A0E81850BD
:1005000044BF18C918C0BDE810405FEA827C24BF10
:1005100051F8043B40F8043B08BF7047D20728BF9E
:1005200031F8023B48BF11F8012B28BF20F8023BED
:1005300048BF00F8012B70474FF000020429C0F0BB
:10054000128010F0030C3FF472AFCCF1040CBCF13C
:10055000020F18BF00F8012BA8BF20F8022BA1EB57
:100560000C01FFF764BF5FEAC17C24BF00F8012BD8
:1005700000F8012B48BF00F8012B7047007B00F00A
:1005800080007047754600F02BF8AE4605006946BE
:10059000534620F00700854618B020B5FFF792FEBD
:1005A000BDE820404FF000064FF000074FF0000874
:1005B0004FF0000B21F00701AC46ACE8C009ACE8F5
:1005C000C009ACE8C009ACE8C0098D46704710B559
:1005D0000446AFF300802046BDE81040FFF711BE8F
:1005E00000487047E05F002070B504460025206891
:1005F000806800F00100F0B12068806820F0010000
:100600002168886002F024F805460EE002F020F828
:10061000401B022809D9A06A40F01000A062E06ADD
:1006200040F00100E062012070BD2068806800F0A9
:1006300001000028EAD10020F6E7000038B50446A2
:100640000025002000902068806800F0010080BB39
:100650002068806840F001002168886016480068C2
:100660001649B0FBF1F0009002E00098401E0090A7
:1006700000980028F9D101F0EBFF054613E001F0E6
:10068000E7FF401B02280ED9A06A40F01000A062CC
:10069000E06A40F00100E06200BF002084F824001E
:1006A00000BF012038BD2068806800F001000028EC
:1006B000E5D00020F6E700001C00002040420F00BB
:1006C00000B587B0022001908003039001A802F0DA
:1006D0002BF90C480C4908600020486000210A48AA
:1006E00081600173012101610021017581614FF475
:1006F0006021C16101F01EFB034801F0E5F907B07C
:1007000000BD000000240140C802002070B505466D
:100710001B480078FF2811DA19480078401C184956
:100720000870084600780A2808DB16480068C043AD
:100730001549C1F8A001002011490870134800783C
:10074000FF2814DA11480078401C10490870084648
:10075000007805280BDB0020087003F0F3FF0C493C
:1007600008600C480068C0430B49C1F8880105F0D7
:1007700055FA044603F0BCFA0849086070BD000051
:1007800018000020A001224200002242190000208F
:10079000440000208881224200802242480000203C
:1007A00000B585B000BF1248806940F010001049C4
:1007B00088610846806900F01000009000BF00BF0B
:1007C000202001900120029003900320049001A9B1
:1007D000084801F08FFD00222021064801F032FF79
:1007E00041F61F41312004F05BFD05B000BD000063
:1007F000001002400010014000BFFEE710B50446A3
:10080000012C02D10549087004E0022C02D102201B
:100810000249087000F00CFD10BD0000B601002078
:100820002DE9FC5F8246504607F0BAFC80B2AA4927
:10083000098888424AD04FF08441504607F0FCFCBA
:1008400001D24FF0000A504607F0AAFC84B22146BC
:10085000002000F0A1FBA1480088322874DA0021B2
:10086000504607F0E9FD32D89C48008807F0D0FCDC
:10087000834607F01DFB06460022994B07F016F849
:1008800004460D46504607F013FB804622462B4691
:1008900007F0EAF81BD89349504607F001FD0746D8
:1008A000914907F09FFB0646904907F0F6FD054683
:1008B00007F076FC84B24FF48060E721552322468E
:1008C000CDE900104521062000F0B2F9FDE05046C8
:1008D00007F0EEFA04460D468048008807F098FCC1
:1008E000834607F0E5FA804600227D4B06F0DEFFE6
:1008F000064622462B4607F0B7F826D277480088EE
:100900001E3007F06DFC0446514607F095FD1CD8DB
:100910007449504607F0C4FC0746734907F062FB70
:100920000646724907F0B9FD054607F039FC84B266
:100930004FF60840E62155232246CDE90010452117
:10094000062000F075F9C0E025E0644800881E30FC
:1009500007F046FC0446514607F06EFCB6D26149EA
:10096000504607F09DFC07465F4907F03BFB0646F3
:100970005E4907F092FD054607F012FC84B24FF481
:100980007840E62155232246CDE900104521062076
:1009900000F04EF999E00021504607F04DFD32D8A5
:1009A0004E48008807F034FC834607F081FA804601
:1009B0004F4A504B07F094F804460D46504607F056
:1009C00077FA064622462B4607F04EF81BD84549D3
:1009D000504607F065FC0746434907F003FB06460F
:1009E000424907F05AFD054607F0DAFB84B24FF49E
:1009F0008060E72155232246CDE9001045210620DD
:100A000000F016F961E0504607F052FA04460D4630
:100A10003248008807F0FCFB834607F049FA80461D
:100A2000334A344B07F05CF8064622462B4607F063
:100A30001BF825D2294800881E3007F0D1FB044658
:100A4000514607F0F9FC1BD82649504607F028FC10
:100A50000746254907F0C6FA0646244907F01DFD5A
:100A6000054607F09DFB84B24FF60840E62155236A
:100A70002246CDE900104521062000F0D9F824E0F7
:100A8000164800881E3007F0ABFB0446514607F0BD
:100A9000D3FB1AD21349504607F002FC074612490D
:100AA00007F0A0FA0646114907F0F7FC054607F0E3
:100AB00077FB84B24FF47840E62155232246CDE9F6
:100AC00000104521062000F0B3F8504607F068FBFF
:100AD00001490880BDE8FC9F080100206600002055
:100AE00000000440000033430000FA430000674365
:100AF000CDCCCCCCCCCCF03F2DE9FE4F4FF0000953
:100B000000200290002466E00B2000F0C3FF0546A1
:100B100007F07EFB814639480168484607F0C8FC6B
:100B2000814649463648006807F0BAFB0546354815
:100B30000168284607F0E8F98146334800886428B0
:100B400018DC3148008806F07CFF074600222F4B56
:100B500006F0C6FF82468B46484607F0A9F9524682
:100B60005B46CDE9000107F0B9F8054606F06CFEDA
:100B7000814622E024480088C8281EDD22480088DB
:100B8000B0F5967F19DC20490988A1F1C80006F06C
:100B900041FF00221D4BCDE9000106F0A1FF0546F3
:100BA0000E46484607F084F907462A46334606F0C3
:100BB0007DFE824606F048FE81461549484607F00C
:100BC0003BFB01D24FF000094946029807F09CF91F
:100BD0000290601CC4B2142C96DB0E49029807F0F8
:100BE00001FA02904FF08441029807F025FB01D2F0
:100BF000002002900298BDE8FE8F0000BC8500082E
:100C000054000020580000206E0000200000E83F43
:100C10000000F0410000A041002004E00021034A50
:100C20001154411CC8B21428F8DB7047740200202C
:100C30002DE9F04704460D4617461E46DDE90889B2
:100C4000200A134908714C71280A8872CD72380A3B
:100C500008734F73300A8873CE734FEA18200874F4
:100C600081F811804FEA1920887481F813904FF4AD
:100C70007A731622074802F06DFF00BF054800682E
:100C80000068C0F380100028F8D0BDE8F0870000AD
:100C9000BD000020880200207047000010B53220FF
:100CA00001F024FD00200149086010BD940122429A
:100CB00010B50421014802F045FD10BD38030020A5
:100CC00070B505460C46280A0A4908714D71200A7C
:100CD0008871CC714FF47A730822074802F03AFF0A
:100CE00000BF054800680068C0F380100028F8D0F5
:100CF00070BD0000B50000208802002070B5002102
:100D00004620FFF7DDFF00214220FFF7D9FF02F068
:100D10008EFF1B228049814804F096F87E48C08CE3
:100D20007F4908807C48008D7E490880084600780D
:100D30007D4908707848408D7C4908807649B1F932
:100D40002C0007F04DFA0446794907F04BF9794930
:100D500008607149B1F92E0007F042FA044674495F
:100D600007F040F9744908606B49B1F9300007F0A9
:100D700037FA04466E4907F035F97049086066494C
:100D8000B1F9320007F02CFA0446694907F02AF954
:100D90006B4908606049B1F9340007F021FA6949EC
:100DA000086000216748006807F046FA02D2002078
:100DB0006449086064496348006807F03DFB02D25B
:100DC0006148604908605448B0F92400503806284A
:100DD0004CD2DFE800F0030F1B27333F212000F047
:100DE000C1F900215020FFF76BFF4B48408857495D
:100DF00008803CE0222000F0B5F900215120FFF7E7
:100E00005FFF454800895149088030E0232000F009
:100E1000A9F900215220FFF753FF3F48C0894B49F1
:100E2000088024E0242000F09DF900215320FFF7E2
:100E300047FF3948808A4549088018E0252000F09E
:100E400091F900215420FFF73BFF3348408B3F4985
:100E500008800CE0262000F085F900215520FFF7DE
:100E60002FFF2D48008C3949088000E000BF00BFEB
:100E700041F2171000F06CF82C48018840F2151070
:100E800000F08AF826480188022000F085F82548FD
:100E90000188242000F080F821480188042000F017
:100EA0007BF820480188262000F076F82049214868
:100EB000006807F0F5F9054607F072F984B221469B
:100EC000A02000F069F81A491B48006807F0E8F90B
:100ED000054607F065F984B22146A42000F05CF8CD
:100EE00013491648006807F0DBF9054607F058F982
:100EF00084B22146722000F04FF80D491048006876
:100F000007F0CEF9054607F04BF984B22146A82038
:100F100000F042F870BD00007000002000F80708E3
:100F2000660000206A000020800100206E00002082
:100F30000000C84254000020580000205C0000203F
:100F400060000020500000200000164468000020CF
:100F500070B50446260AE5B20A48067145714FF499
:100F60007A7306220146084802F0F4FD00BF0648E5
:100F700000680068C0F380100028F8D003A0FFF7D5
:100F8000C7F970BDDA0000208802002056312E30EB
:100F90002E302E323231320070B505460C46280A0A
:100FA0000A4908714D71200A8871CC714FF47A7327
:100FB0000822074802F0CEFD00BF0548006800681F
:100FC000C0F380100028F8D070BD0000AD000020F4
:100FD0008802002010B55948008800F4005000280D
:100FE0007ED05748807806283DD15548C078832860
:100FF00039D153480079B0BB51484079042832D1E7
:101000004F48807901282ED14D48017AC07901EBF3
:1010100000204C490880084600881E2801DA1E205E
:10102000088048480088B0F5FA7F03DD4FF4FA7075
:10103000444908804348008843490988884208DBBE
:10104000414800883F4908803F4801880420FFF755
:10105000A3FF3C4801880220FFF79EFFFFF7DCFD5D
:1010600000203649088036488078062823D1344845
:10107000C07883281FD132480079E0B930484079E0
:10108000262818D12E488079012814D12C48017ABD
:10109000C07901EB00202D490880084600782C49D2
:1010A00008702A4801882420FFF776FFFFF7B4FD77
:1010B0000020224908802248807806283CD1204818
:1010C000C078832838D11E480079112834D11C48B3
:1010D0004079192830D11A48807901282CD100E0B4
:1010E0002AE017490A7AC97902EB012007F078F85B
:1010F0001849086000211748006807F09DF802D2DF
:1011000000201449086014491248006807F094F957
:1011100002D211480F4908600E48006807F040F8F5
:1011200084B221466E20FFF737FFFFF775FD1B22C3
:101130000A490B4803F09CFE10BD00003800002057
:101140007402002066000020680000206A00002071
:101150008001002050000020000016447000002094
:1011600000F8070810B50446200A094948718C7137
:101170004FF47A730722074802F0ECFC00BF0548E1
:1011800000680068C0F380100028F8D010BD00008F
:10119000A60000208802002010B54FF4805001F016
:1011A0009BF84FF4004001F097F810BD00B585B0F2
:1011B00000BF1B48806940F0040019498861084657
:1011C000806900F00400009000BF00BF00BF084627
:1011D000806940F0100088610846806900F01000C6
:1011E000009000BF00BF4FF4004001900D480290F6
:1011F0000120039001A90C4801F07CF84FF48050C5
:10120000019001A9094801F075F800220221282067
:1012100001F09EFA282001F08BFA05B000BD000015
:1012200000100240000021100008014000100140A1
:1012300010B5322001F07CFA10BD000010B5042179
:10124000014802F053FA10BD380300200021074A7C
:10125000D1610749096941F00201054A116111464E
:101260004861096941F04001116170474002002066
:10127000002002400022054BDA61054A126942F063
:101280000102034B1A6101807047000040020020F8
:101290000020024000201E49C96801F0100139B148
:1012A0001C49C96941F002011A4AD16140F010009D
:1012B0001749C96801F0040139B11649C96941F0FB
:1012C0000101144AD16140F004001149C96901F0DB
:1012D000010169B10F49C96941F004010D4AD161A9
:1012E00000BF0B49C96921F00101094AD16100BF62
:1012F00000BF40F20111884206D10549C96921F0B9
:101300000101034AD16101E00149C86000BF704793
:10131000002002404002002070B5044601F098F918
:10132000054609E0601C38B124B101F091F9401B79
:10133000A04201D9032070BD1248C06800F001002E
:101340000028EFD10F48C06800F0200020B100BF96
:1013500020200C49C86000BF0A48C06800F0100097
:1013600048B90848C06900F0010020B90548C068C4
:1013700000F0040018B1FFF78DFF0120DBE700202B
:10138000D9E700000020024010B5184880780628F0
:101390002BD11648C078832827D11448007908BB80
:1013A00012484079AA2820D11048807901281CD100
:1013B0000E48C079552818D10C48007A552814D108
:1013C000FFF72AFC0A480078401C094908700846C3
:1013D000007800F0010030B1FFF730FF05480088C9
:1013E00003F0A4F801E0FFF763FC10BD74020020D5
:1013F0001C010020C08500082DE9F04146484179D4
:10140000007901EB002084B2A02C40D14249087A37
:1014100006F0FEFE06464049C87906F0F9FE07468A
:101420004FF0874106F03CFF0546314606F06CFD63
:101430003A490860FFF7F0FB3848006806F094FE70
:1014400000B23749888505F0B1FA02F0F0FB1B22A3
:101450003349344803F00CFD05F0C2FA32492F48F5
:10146000006806F0E9FF0AD22C480168002007F066
:101470001FF805462C4906F047FD284908602B490E
:101480002648006806F0AEFD2449086041E0A42C1F
:101490003FD12149087A06F0BBFE06461E49C879AD
:1014A00006F0B6FE07464FF0874106F0F9FE054606
:1014B000314606F029FD1E490860FFF7ADFB1C48C8
:1014C000006806F051FE00B21549C88505F06EFAB5
:1014D00002F0ADFB1B221249124803F0C9FC05F0D3
:1014E0007FFA11491248006806F0A6FF0AD2104898
:1014F0000168002006F0DCFF05460B4906F004FDFC
:101500000B49086009490A48006806F06BFD084964
:101510000860BDE8F0810000740200205400002043
:101520007000002000F8070800401C460000C84278
:10153000580000202DE9F04146484179007901EB3F
:10154000002084B2722C40D14249087A06F060FE35
:1015500006464049C87906F05BFE07464FF08741D2
:1015600006F09EFE0546314606F0CEFC3A4908607C
:10157000FFF752FB3848006806F0F6FD00B2374925
:10158000088605F013FA02F052FB1B223349344857
:1015900003F06EFC05F024FA32492F48006806F08B
:1015A0004BFF0AD22C480168002006F081FF054657
:1015B0002C4906F0A9FC284908602B4926480068F8
:1015C00006F010FD2449086041E0A82C3FD12149D4
:1015D000087A06F01DFE06461E49C87906F018FE78
:1015E00007464FF0874106F05BFE0546314606F0A0
:1015F0008BFC1E490860FFF70FFB1C48006806F0D3
:10160000B3FD00B21549488605F0D0F902F00FFB92
:101610001B221249124803F02BFC05F0E1F9114995
:101620001248006806F008FF0AD21048016800203E
:1016300006F03EFF05460B4906F066FC0B490860C4
:1016400009490A48006806F0CDFC08490860BDE871
:10165000F0810000740200205C0000207000002077
:1016600000F8070800401C460000C8426000002047
:1016700010B514484179007901EB002084B240F2A2
:10168000151084421DD10F48017AC07901EB00206A
:101690000D490880FFF7C0FA0B48008800B20B49DB
:1016A000488505F083F902F0C2FA1B220749084871
:1016B00003F0DEFB05F094F9034801882046FFF7AC
:1016C0006BFC10BD740200206E0000207000002032
:1016D00000F8070810B51248807806281ED1104877
:1016E000C07883281AD10E480079B8B90C484079DF
:1016F000442813D10A48807901280FD10848C079BD
:101700005A280BD10648007A5A2807D1FFF784FAE5
:1017100004480068C0430449C1F8980110BD0000A6
:1017200074020020980122420000224210B5744841
:101730004179007901EB002084B240F20111601A76
:101740008C4275D013DC962C3ED007DCECB1902C8B
:101750001CD0922C24D0942C69D12BE0982C3DD015
:101760009A2C45D09C2C4DD09E2CF5D154E0801E57
:1017700011285CD2DFE800F066C070C07AC084C077
:101780008EC098C0A2C0ACC0B600B6E05C48017A7A
:10179000C07901EB00205B490880FFF73DFAACE01F
:1017A0005748017AC07901EB002056494880FFF77D
:1017B00033FAA2E05248017AC07901EB0020514986
:1017C0008880FFF729FA98E04D48017AC07901EB4B
:1017D00000204D490880FFF71FFA8EE04848017A43
:1017E000C07901EB002048494880FFF715FA84E0F2
:1017F0004348017AC07901EB002043498880FFF714
:101800000BFA7AE03E48017AC07901EB00203F49AB
:101810000880FFF701FA70E03948017AC07901EBDE
:1018200000203A494880FFF7F7F966E000E063E0FE
:101830003348017AC07901EB002034498880FFF7F2
:10184000EBF95AE02E48017AC07901EB00203049CB
:101850000880FFF7E1F950E02948017AC07901EBEF
:1018600000202B494880FFF7D7F946E02448017A49
:10187000C07901EB002026498880FFF7CDF93CE0D4
:101880001F48017AC07901EB002022490880FFF748
:10189000C3F932E01A48017AC07901EB00201D49F2
:1018A0004880FFF7B9F928E01548017AC07901EBC3
:1018B000002018498880FFF7AFF91EE01048017A30
:1018C000C07901EB002014490880FFF7A5F914E066
:1018D0000B48017AC07901EB00200F494880FFF7DF
:1018E0009BF90AE00648017AC07901EB00200A4919
:1018F0008880FFF791F900E000BF00BF10BD000035
:10190000740200201E010020240100202A01002072
:1019100030010020360100203C01002010B51A489B
:101920008078062820D11848C07883281CD1164812
:101930000079C8B914484079662815D112488079D1
:10194000012811D11048C0795A280DD10E48007ACB
:101950005A2809D1FFF760F92120FFF703FC002086
:101960000A4908700A490880FFF7E0FEFFF7E2FD28
:10197000FFF742FDFFF77CFEFFF7ACFEFFF704FD2B
:1019800003F010FB10BD0000740200204E00002088
:101990003800002010B54FF400711F4800F04AFED7
:1019A00040BB0A2004F08AF81C480088401C1B49F0
:1019B00008804FF40071184800F03CFE48B9184800
:1019C000007830B901201649087001214620FFF740
:1019D00077F912480088B0F5FA6F1CDB4FF4FA6013
:1019E0000E49088000200E49087000214620FFF7AC
:1019F00067F910E0002009490880094800780128AB
:101A000009D100200649087000214620FFF758F947
:101A100000200449087010BD000C01404000002067
:101A20003E0000206C0000207CB504460D4618489E
:101A3000007860B3002016490870C4B129462220FE
:101A4000FFF7AAFAB32068430D2190FBF1F0C0F133
:101A5000E60086B24FF48060E62140F2071332467A
:101A6000CDE90010F0212820FFF7E2F80FE0002177
:101A70002220FFF791FA4FF48060E62140F207132D
:101A80000A46CDE90010F0212820FFF7D1F87CBDEF
:101A9000170100203EB50446009401200190072064
:101AA00002906946074800F091F8064800F0D8FA1D
:101AB0000A21044800F01CFA024800F037F980B20D
:101AC0003EBD0000C8020020F8B5044600260020F4
:101AD000009000BF94F82400012801D10220F8BD35
:101AE000012084F8240000BF2046FEF77DFD064655
:101AF000002E62D1A06A20F4885040F00200A0625B
:101B0000022000F077FE30490968B1FBF0F0400098
:101B1000009002E00098401E009000980028F9D143
:101B20002046FEF78BFD2068806840F008002168A1
:101B3000886000F08DFD054611E000F089FD401B36
:101B40000A280CD9A06A20F0020040F01000A06220
:101B500000BF002084F8240000BF0120BFE72068F8
:101B6000806800F008000028E7D12068806840F015
:101B700004002168886000F06BFD054611E000F06C
:101B800067FD401B0A280CD9A06A20F0020040F033
:101B90001000A06200BF002084F8240000BF0120D4
:101BA0009DE72068806800F004000028E7D1A06A63
:101BB00020F0020040F00100A06200BF002084F885
:101BC000240000BF30468AE71C00002038B50246DA
:101BD00000230020009000BF92F82400012801D1CA
:101BE000022038BD012082F8240000BF4868072881
:101BF00012D21068406B0C79641E04EB84051F241C
:101C0000AC40A0430D796D1E05EB85050C68AC401A
:101C100020431468606327E048680D2812D21068DA
:101C2000006B0C79E41F04EB84051F24AC40A04337
:101C30000D79ED1F05EB85050C68AC402043146859
:101C4000206311E01068C06A0C790D3C04EB840538
:101C50001F24AC40A0430D790D3D05EB85050C68B4
:101C6000AC4020431468E06208680A2812D3106868
:101C7000C0680C780A3C04EB44050724AC40A04340
:101C80000D780A3D05EB45058C68AC40204314688F
:101C9000E0600FE0106800690C7804EB440507244D
:101CA000AC40A0430D7805EB45058C68AC40204363
:101CB000146820610868102802D00868112827D10C
:101CC000174C1068A0421ED11068806800F4000014
:101CD000F0B91068806840F400001468A0600868DB
:101CE000102815D10F4800680F4CB0FBF4F000EB42
:101CF00080004000009002E00098401E0090009894
:101D00000028F9D104E0906A40F02000906201239D
:101D100000BF002082F8240000BF184661E70000E1
:101D2000002401401C00002040420F0001460868CA
:101D3000C06C70472DE9F0410446002700250026BD
:101D4000A84614B90120BDE8F081A06810B1207D3B
:101D500000B100BFA06A30B90020E06284F824001E
:101D6000204600F097F82046FEF73EFC0746A06AA2
:101D700000F01000002873D1002F7ED1A06A20F45B
:101D8000885040F00200A0623F4AD4E9000190422E
:101D900008D1E069B0F5402F02D14FF4002002E0F5
:101DA000E06900E0E0690143207B41EA400006432E
:101DB000A068B0F5807F02D0A068012802D14FF45E
:101DC000807000E000200543207D012811D1207B98
:101DD00038B9A069401E4FF4006141EA4030054324
:101DE00007E0A06A40F02000A062E06A40F0010035
:101DF000E0622068406820F4694028432168486018
:101E00002068806821490840304321688860A068C4
:101E1000B0F5807F02D0A068012802D14FF4807015
:101E200000E00020B0F5807F03D1208A401E4FEAF9
:101E300000582068C06A20F4700040EA0800216859
:101E4000C8622068806812490840B04209D1002069
:101E5000E062A06A20F0020040F00100A06211E000
:101E60000BE0A06A20F0020040F01000A062E06ADF
:101E700040F00100E062012704E0A06A40F0100099
:101E8000A062012738465EE7003C0140FDF7E1FF14
:101E9000FE0E1FFF10B586B0044600BF12488069D1
:101EA00040F40070104988610846806900F40070B1
:101EB000019000BF00BF00BF0846806940F01000DD
:101EC00088610846806900F01000019000BF00BFE3
:101ED0000320029003900020049002A9034800F020
:101EE00009FA06B010BD00000010024000100140C9
:101EF000F8B504460D46002600200090002700F0AB
:101F0000A7FB06462068806800F4807050B1A06A84
:101F100040F02000A06200BF002084F8240000BF31
:101F20000120F8BD2068406800F48070F8B920688E
:101F3000C06A00F47000D0B912E0681C80B125B10D
:101F400000F086FB801BA8420AD9A06A40F004007A
:101F5000A06200BF002084F8240000BF0320E0E757
:101F60002068006800F002000028E6D050E002205F
:101F700000F040FC36490968B1FBF0F021680969BE
:101F8000344A114091B92168C9689211114069B968
:101F900021680969304A114031B92168C968921134
:101FA000114009B9142117E0292115E021680969B8
:101FB000294A114021B92168C9689211114041B1E3
:101FC00021680969254A114029B92168C968114069
:101FD00009B9542100E0FC2100FB01F715E0681C61
:101FE00080B125B100F034FB801BA8420AD9A06A59
:101FF00040F00400A06200BF002084F8240000BF6D
:1020000003208EE70098401C00900098B842E6D369
:102010006FF0120021680860A06A40F40070A062AE
:102020002068806800F46020B0F5602F0DD1207B1F
:1020300058B9A06A20F48070A062A06A00F48050B1
:1020400018B9A06A40F00100A062002069E7000012
:102050001C00002024499224922449124992240011
:1020600070B50446002500BF94F82400012801D172
:10207000022070BD012084F8240000BF2046FEF736
:10208000DDFA0546002D77D1A06A40F20121884390
:1020900040F48070A0623C492068884208D13B48E7
:1020A000006800F4702008B9012002E0002000E080
:1020B000012078B1A06A20F48010A06220684068F6
:1020C00000F4806000B3A06A20F4005040F4805017
:1020D000A06219E0A06A40F48010A0622B49091F99
:1020E0002068884203D028492068884204D12748C4
:1020F000006800F4806000E0002028B1A06A20F4AD
:10210000005040F48050A062A06A00F4805020B1DA
:10211000E06A20F00600E06201E00020E06200BF1B
:10212000002084F8240000BFC01E216808602068D9
:10213000806800F46020B0F5602F16D11249206845
:10214000884208D11148006800F4702008B90120C5
:1021500002E0002000E0012038B12068806840F4EF
:10216000A000216888600CE006E02068806840F4E8
:1021700080102168886004E000BF002084F82400FB
:1021800000BF284675E700000028014004240140F4
:102190000348006940F08000014908610020704751
:1021A000002002402DE9FE4F05468B461746984613
:1021B000012600240020029000BF2448007E012850
:1021C00002D10220BDE8FE8F01202049087600BF21
:1021D0004CF25030FFF7A0F8064686BB012D02D125
:1021E0000120029006E0022D02D10220029001E0BF
:1021F0000420029000241EE02201B946C24648464F
:102200005146FEF772F880B20190022000FB04B044
:1022100000900199FFF72EF84CF25030FFF77CF850
:1022200006460B48006920F001000949086106B123
:1022300004E0601CC4B202988442DDDB00BF00BF32
:1022400000200249087600BF3046BBE7400200206C
:102250000020024000200849096901F0800151B1C5
:102260000649054A5160064951601146096901F065
:10227000800101B101207047002002402301674521
:10228000AB89EFCD10B50446642003F017FCB4F51C
:10229000805F0CD0B4F5004F13D14FF400410A48D1
:1022A00000F0C8F910B901200849087009E04FF49E
:1022B0008051074800F0BEF910B9012005490870A7
:1022C00000BF00BF10BD0000000801403B0000201F
:1022D000001001403C00002010B50446044800688E
:1022E000204020B1024804602046FFF7CBFF10BD1C
:1022F000140401402DE9F847024600239C467BE187
:102300004FF0010808FA03F4D1F8008008EA04004D
:10231000A0427DD1DFF8F4A2D1F80480A8EB0A092D
:10232000D0453AD014DCB8F1030F50D009DCB8F135
:10233000000F31D0B8F1010F1CD0B8F1020F49D114
:1023400020E0B8F1110F18D0B8F1120F42D11EE001
:10235000B9F5881F25D006DCB9F5803F20D0B9F546
:10236000801F37D11AE0B9F5001F18D0B9F5041F46
:1023700030D117E0D1F80CC02DE0D1F80C8008F175
:10238000040C28E0D1F80C8008F1080C23E0D1F807
:102390000C8008F10C0C1EE000BF00BF00BF00BFA6
:1023A00000BF00BFD1F80880B8F1000F02D14FF094
:1023B000040C0BE0D1F80880B8F1010F03D14FF005
:1023C000080C146102E04FF0080C546103E04FF078
:1023D000000C00E000BF00BFFF2801D8904601E0DC
:1023E00002F104084646FF2802D84FEA830803E0BA
:1023F000A3F108084FEA88084746D6F800804FF056
:102400000F0909FA07F928EA09080CFA07F900E0A8
:102410007AE048EA0908C6F80080D1F8048008F09C
:102420008058B8F1805F6FD100BFDFF8E481D8F841
:10243000188048F00108DFF8D891C9F81880C8461C
:10244000D8F8188008F00108CDF8008000BF00BF60
:102450004FEAB9384FEA930958F829504FEA837880
:102460004FEA18794FF00F0808FA09F825EA08052D
:10247000DFF8A081424502D14FF0000824E0DFF8E8
:102480009881424502D14FF001081DE0DFF88C81B0
:10249000424502D14FF0020816E0DFF88481424540
:1024A00002D14FF003080FE0DFF87881424502D1F6
:1024B0004FF0040808E0DFF87081424502D14FF088
:1024C000050801E04FF006084FEA83794FEA1979D1
:1024D00008FA09F848EA0505DFF850814FEA930940
:1024E00048F82950D1F8048008F48038B8F5803FC6
:1024F0000BD1DFF83C81D8F8008048EA0008DFF80B
:102500003091C9F800800AE075E0DFF82481D8F83E
:10251000008028EA0008DFF81891C9F80080D1F897
:10252000048008F40038B8F5003F0ED1DFF80081D0
:1025300008F10408D8F8008048EA0008DFF8F090B5
:1025400009F10409C9F800800DE0DFF8E48008F122
:102550000408D8F8008028EA0008DFF8D49009F1D0
:102560000409C9F80080D1F8048008F48018B8F58F
:10257000801F0ED1DFF8B88008F10808D8F8008075
:1025800048EA0008DFF8A89009F10809C9F80080B6
:102590000DE0DFF89C8008F10808D8F8008028EAF0
:1025A0000008DFF88C9009F10809C9F80080D1F81B
:1025B000048008F40018B8F5001F0ED1DFF8708011
:1025C00008F10C08D8F8008048EA0008DFF86090AD
:1025D00009F10C09C9F800800DE0DFF8548008F11A
:1025E0000C08D8F8008028EA0008DFF8449009F1C8
:1025F0000C09C9F800805B1CD1F8008028FA03F8A8
:10260000B8F1000F7FF47CAEBDE8F8870000111030
:102610000010024000080140000C01400010014081
:102620000014014000180140001C01400800014056
:1026300000040140024693680B400BB1012000E00A
:10264000002070470AB1016101E00B04036170478B
:10265000014800687047000020000020034800681F
:1026600003490978084401490860704720000020A8
:102670002800002010B50848006840F01000064906
:102680000860032000F0A2F80F2000F007F800F027
:102690002BF8002010BD00000020024070B5044659
:1026A0000E4800784FF47A71B1FBF0F00C490968DC
:1026B000B1FBF0F5284600F049FD08B1012070BDDE
:1026C000102C07D200222146501E00F041F8054888
:1026D000046001E00120F2E70020F0E7280000207C
:1026E0001C000020240000207047000010B50146A7
:1026F0000846002817DB00F01F0301229A400B4B0D
:10270000440943F8242000BF00BF00BFBFF34F8F30
:1027100000BF00BF00BF00BF00BF00BFBFF36F8F8F
:1027200000BF00BF00BF00BF10BD000080E100E09F
:1027300001460846002809DB00F01F0301229A40E9
:1027400043099B0003F1E023C3F8002100BF704759
:102750002DE9F05F80460D461646002703F050F93C
:10276000074639462A46334601F00700C0F1070AFA
:10277000BAF1040F02D94FF0040A01E0C0F1070AD0
:10278000D14600F1040ABAF1070F02D24FF0000A55
:1027900001E0A0F1030AD4464FF0010A0AFA09FA4F
:1027A000AAF1010A0AEA020A0AFA0CFA4FF0010B2E
:1027B0000BFA0CFBABF1010B0BEA030B4AEA0B041F
:1027C0002146404603F024F9BDE8F09F00BF00F029
:1027D0000702064B19684FF6FF031940044B0B43E1
:1027E00043EA0221014B196000BF70470CED00E085
:1027F0000000FA052DE9F04385B0064642A30FCB51
:1028000001AC0FC444A0006800904FF00008002500
:1028100000270024A146042E36D004DC012E3BD034
:10282000022E6BD15FE0082E32D0102E66D13B48CD
:102830004468006800F0807000B301A8C4F38341CD
:10284000475C04F4803070B134484068C0F34040C5
:102850001DF8008004F4803040B13148B0FBF8F03E
:1028600000FB07F502E02F4807FB00F52B48406806
:1028700000F48000B0F5800F01D1A94603E06800A4
:102880000321B0FBF1F93AE000F0D0F9814636E0DF
:1028900000F0CCF9814632E02048046A04F440702C
:1028A000B0F5807F05D104F0020010B14FF400496B
:1028B00018E004F44070B0F5007F07D11748406A73
:1028C00000F0020010B149F640490BE004F44070FA
:1028D000B0F5407F06D11148006800F4003008B11F
:1028E0004FF224490BE000F091F90C494968C1F31B
:1028F0008131491C4900B0FBF1F900E000BF00BF85
:10290000484605B0BDE8F083020304050607080940
:102910000A0B0C0D0E0F10100102000000100240F7
:1029200000127A0000093D00F8B504460027002691
:102930000025207800F00100002869D04248C069D5
:1029400000F0805070B900BF3F48C06940F080502F
:102950003D49C8610846C06900F08050009000BF42
:1029600000BF01273948006800F48070B0B93748CB
:10297000006840F4807035490860FFF769FE06463C
:1029800006E0FFF765FE801B642801D90320F8BD2F
:102990002E48006800F480700028F2D02A48006AAF
:1029A00000F440752DB3A08800F44070A84220D0F8
:1029B0002548006A20F44075012025490860002060
:1029C00008602148056205F0010090B1FFF740FE64
:1029D000064608E0FFF73CFE801B41F28831884242
:1029E00001D90320D3E71848006A00F0020000284C
:1029F000F0D01548006A20F440706168084312491D
:102A00000862012F04D10846C06920F08050C861D7
:102A1000207800F00200022807D10B48406820F41B
:102A20004040A168084308494860207800F0100041
:102A3000102807D10448406820F4800061690843E9
:102A4000014948600020A2E70010024000700040E9
:102A50004004424270B504460D460CB9012070BDD9
:102A60005A48006800F00700A8420ED25748006894
:102A700020F007002843554908600846006800F028
:102A80000700A84201D00120E9E7207800F0020009
:102A900002281DD1207800F00400042805D14C48FC
:102AA000406840F4E0604A494860207800F008003F
:102AB000082805D14648406840F4605044494860C1
:102AC0004348406820F0F000A1680843404948604E
:102AD000207800F0010078B36068012806D13C48F6
:102AE000006800F4003090B90120B8E7606802285F
:102AF00006D13748006800F0007040B90120AEE709
:102B00003348006800F0020008B90120A7E7304808
:102B1000406820F00300616808432D494860FFF7D2
:102B200097FD064609E0FFF793FD801B41F28831CF
:102B3000884202D9032092E707E02548406800F068
:102B40000C006168B0EB810FEDD12048006800F007
:102B50000700A8420ED91D48006820F0070028434E
:102B60001A4908600846006800F00700A84201D032
:102B7000012074E7207800F00400042807D11448ED
:102B8000406820F4E060E16808431149486020781B
:102B900000F00800082808D10D48406820F4605073
:102BA000216940EAC1000A49486000F03FF808493D
:102BB0004968C1F30311074A515CC84006490860DF
:102BC00006480068FFF76AFD002048E70020024041
:102BD000001002409A8500081C00002024000020FC
:102BE00001480068704700001C00002000B5FFF796
:102BF000F7FF04494968C1F30221034A515CC84008
:102C000000BD000000100240AA85000800B5FFF7D3
:102C1000E7FF04494968C1F3C221034A515CC84037
:102C200000BD000000100240AA850008F0B585B084
:102C30000FF26C0C9CE8E01001A8A0E8E0101CA5C5
:102C40002D68009500210022002300240020194D4A
:102C5000696801F00C05F5B1042D02D0082D19D1D9
:102C600001E0154819E001ADC1F38346AC5D01F404
:102C7000803555B10F4D6D68C5F340451DF80520F1
:102C80000D4D6543B5FBF2F302E00C4D04FB05F37B
:102C9000184602E000BF084800BF00BF05B0F0BD05
:102CA00002030405060708090A0B0C0D0E0F10108D
:102CB000010200000010024000127A0000093D00ED
:102CC000F8B504460CB90120F8BD207800F00100E9
:102CD000002878D0F848406800F00C0004280CD098
:102CE000F548406800F00C00082811D1F24840680F
:102CF00000F48030B0F5803F0AD1EF48006800F45E
:102D0000003000285FD0606800285CD10120DBE73C
:102D100000BF6068B0F5803F06D1E748006840F426
:102D20008030E549086028E0606858B9E2480068EA
:102D300020F48030E04908600846006820F48020D4
:102D400008601AE06068B0F5A02F0BD1DA4800687F
:102D500040F48020D84908600846006840F480307C
:102D600008600AE0D448006820F48030D249086046
:102D70000846006820F48020086000BF606888B1C1
:102D8000FFF766FC054606E0FFF762FC401B64287F
:102D900001D9032098E7C848006800F400300028F3
:102DA000F2D010E0FFF754FC054606E0FFF750FCB8
:102DB000401B642801D9032086E7BF48006800F45F
:102DC00000300028F2D1207800F00200022857D10C
:102DD000B948406800F00C0050B1B748406800F0B6
:102DE0000C00082818D1B448406800F4803098B925
:102DF000B148006800F0020020B12069012801D02C
:102E0000012061E7AC48006820F0F800616940EA01
:102E1000C100A949086033E02069E8B10120A74951
:102E20000860FFF715FC054606E0FFF711FC401BA4
:102E3000022801D9032047E79F48006800F00200FC
:102E40000028F2D09C48006820F0F800616940EA50
:102E5000C1009949086013E0002098490860FFF715
:102E6000F7FB054606E0FFF7F3FB401B022801D9FC
:102E7000032029E79048006800F002000028F2D102
:102E8000207800F0080008282DD1A069B8B10120F1
:102E90008B490860FFF7DCFB054606E0FFF7D8FB2F
:102EA000401B022801D903200EE78348406A00F046
:102EB00002000028F2D0012001F07AFD13E000208A
:102EC0007F490860FFF7C4FB054606E0FFF7C0FB3B
:102ED000401B022801D90320F6E67748406A00F03B
:102EE00002000028F2D1207800F00400042873D1F9
:102EF00000277148C06900F0805070B900BF6E486B
:102F0000C06940F080506C49C8610846C06900F053
:102F10008050009000BF00BF01276A48006800F49D
:102F20008070B0B96748006840F4807065490860F7
:102F3000FFF78EFB054606E0FFF78AFB401B64287F
:102F400001D90320C0E65F48006800F480700028C3
:102F5000F2D000BFE068012806D15748006A40F06F
:102F600001005549086227E0E06858B95248006AF4
:102F700020F00100504908620846006A20F0040071
:102F8000086219E0E06805280BD14B48006A40F060
:102F90000400494908620846006A40F001000862DE
:102FA0000AE04548006A20F00100434908620846EB
:102FB000006A20F00400086200BFE068A0B1FFF7DB
:102FC00047FB054609E0FFF743FB401B41F2883110
:102FD000884202D9032077E622E03748006A00F0F1
:102FE00002000028EFD012E0FFF732FB054608E0B0
:102FF000FFF72EFB401B41F28831884201D90320A4
:1030000062E62D48006A00F002000028F0D1012F8E
:1030100005D12948C06920F080502749C86100BF08
:10302000E069C8B32448406800F00C00082860D06C
:10303000E069022848D1002020490866FFF708FB14
:10304000054606E0FFF704FB401B022801D90320D8
:103050003AE61948006800F000700028F2D1206AB2
:10306000B0F5803F07D11448406820F40030A168D3
:10307000084311494860D4E9080108430E494968EA
:1030800021F4741108430C49486001200B4908667B
:10309000FFF7DEFA054607E03DE0FFF7D9FA401BEF
:1030A000022801D903200FE60348006800F00070F1
:1030B0000028F2D02FE00000001002400000424241
:1030C0008004424200700040002014490866FFF767
:1030D000BFFA054606E0FFF7BBFA401B022801D9FC
:1030E0000320F1E50E48006800F000700028F2D1DE
:1030F00011E0E069012800D1E6E50948466806F4D8
:103100008031206A814204D106F47011606A8142E4
:1031100001D00120D8E50020D6E5000000004242A1
:1031200000100240042808D14FF0E021096941F065
:1031300004014FF0E022116107E04FF0E02109693E
:1031400021F004014FF0E0221161704770B5044690
:103150002546681EB0F1807F01D301200FE0681E74
:103160004FF0E02148610F214FF0FF3002F050FC9A
:1031700000204FF0E021886107200861002070BD29
:103180007047704710B504460CB9012010BD94F883
:103190003D0028B9002084F83C00204600F00CF8DF
:1031A000022084F83D00211D206802F08FF80120E4
:1031B00084F83D000020E9E738B504462068B0F106
:1031C000804F15D100BF2348C06940F0010021495C
:1031D000C8610846C06900F00100009000BF00BF50
:1031E000002204211D20FFF7B3FA1C20FFF7A0FAEC
:1031F00019492068884215D100BF1648C06940F0BF
:1032000002001449C8610846C06900F0020000903D
:1032100000BF00BF002205211D20FFF799FA1D20E5
:10322000FFF786FA0D492068884212D100BF09488D
:10323000C06940F008000749C8610846C06900F04D
:103240000800009000BF00BF002206213220FFF7D7
:103250007FFA38BD0010024000040040000C00401E
:1032600001460868C06840F001000B68D860086833
:10327000806800F00702062A05D00868006840F060
:1032800001000B68186000207047000010B504466C
:103290003E48007800F08000002876D13B48007856
:1032A00000F0400040B33948007840F080003749D2
:1032B000087000203649087000214620FDF700FD07
:1032C000002034490870344908700C21334800F05C
:1032D00061FB3349086031480068006A20F40050FF
:1032E0002E49096808622D480068006A40F40050C1
:1032F0002A490968086248E00020244908702849E2
:1033000008602248007840F0400020490870012001
:103310001F49087000202349087001214620FDF74D
:10332000CFFC01201C49087000BF1C480068006ADF
:1033300041F21111084068B918480068006A891004
:10334000084038B915480068006820F001001349AA
:103350000968086000BF00201049096848620F48EA
:103360000068006A20F400500C49096808620B48A4
:103370000068006A0949096808620848006800682E
:1033800040F0010005490968086010BD0C010020EB
:103390006C000020150100201401002038030020DB
:1033A000100100207501002010B504462068006956
:1033B000C0F34000D8B12068C068C0F34000B0B18D
:1033C0006FF0020021680861012020772068806981
:1033D00000F0030018B12046FFF758FF05E0204633
:1033E00000F0ADF8204600F07FF90020207720683B
:1033F0000069C0F38000D8B12068C068C0F38000C5
:10340000B0B16FF0040021680861022020772068C5
:10341000806900F4407018B12046FFF737FF05E0DF
:10342000204600F08CF8204600F05EF9002020775E
:1034300020680069C0F3C000D8B12068C068C0F33C
:10344000C000B0B16FF00800216808610420207747
:103450002068C06900F0030018B12046FFF716FF8E
:1034600005E0204600F06BF8204600F03DF9002012
:10347000207720680069C0F30010D8B12068C068C8
:10348000C0F30010B0B16FF010002168086108208F
:1034900020772068C06900F4407018B12046FFF71B
:1034A000F5FE05E0204600F04AF8204600F01CF941
:1034B000002020772068006900F0010058B12068E2
:1034C000C06800F0010030B16FF0010021680861B0
:1034D000204600F07BF920680069C0F3C01058B1A5
:1034E0002068C068C0F3C01030B16FF08000216860
:1034F00008612046FFF744FE20680069C0F3801091
:1035000058B12068C068C0F3801030B16FF040003F
:1035100021680861204600F056FA20680069C0F36F
:10352000401058B12068C068C0F3401030B16FF04F
:103530002000216808612046FFF723FE10BD704778
:1035400070B504460D46164600BF94F83C000128AD
:1035500001D1022070BD012084F83C0000BF022090
:1035600084F83D0036B1042E1BD0082E31D00C2E2D
:103570005ED145E02946206801F008FF2068806997
:1035800040F00800216888612068806920F004000C
:1035900021688861206880692969084321688861F9
:1035A00047E02946206801F029FF2068806940F43F
:1035B0000060216888612068806920F4806021684B
:1035C000886120688069296940EA01202168886152
:1035D0002FE02946206801F04FFF2068C06940F0C5
:1035E00008002168C8612068C06920F004002168D3
:1035F000C8612068C069296908432168C86118E06A
:103600002946206801F074FF2068C06940F400601A
:103610002168C8612068C06920F480602168C861A1
:103620002068C069296940EA01202168C86100E07A
:1036300000BF00BF012084F83D0000BF002084F8D7
:103640003C0000BF00BF85E710B504460CB901205F
:1036500010BD94F83D0028B9002084F83C002046B5
:1036600000F00CF8022084F83D00211D206801F0D4
:103670002DFE012084F83D000020E9E710B586B05A
:10368000044616492068884226D100BF1448C06904
:1036900040F004001249C8610846C06900F0040007
:1036A000019000BF00BF00BF0846806940F00800DD
:1036B00088610846806900F00800019000BF00BFE3
:1036C00080200290022003900120049003200590A6
:1036D00002A90448FEF70EFE06B010BD0008004027
:1036E00000100240000C01407047000070B5044615
:1036F0000E4601223146206801F036FE0F4920684F
:10370000884203D00E492068884201D1012000E0A0
:10371000002028B12068406C40F4004021684864D3
:103720002068806800F00705062D05D02068006835
:1037300040F0010021680860002070BD002C0140AD
:103740000034014030B504460D4600222946206869
:1037500001F00AFE1B492068884203D01A492068FC
:10376000884201D1012000E0002090B100BF206814
:10377000006A41F21111084050B92068006A8910AE
:10378000084028B92068406C20F400402168486453
:1037900000BF00BF2068006A41F21111084050B913
:1037A0002068006A8910084028B92068006820F065
:1037B00001002168086000BF012084F83D0000205E
:1037C00030BD0000002C01400034014062498842B5
:1037D0000FD16249097801290BD161490978491C47
:1037E0005F4A117011460978142902DD00215D4AF3
:1037F00011705D49884204D101215C4A11705C4A14
:1038000011705C4988420BD15B4909885B4A1160A1
:10381000594A118801EBD1725210584B0C331A607F
:10382000574988423FD15749097801293BD1564928
:103830000988491C544A118011460988002906DD6F
:1038400011460988232902DA0121504A11604E49A4
:103850000988232906DB4C490988462902DA002118
:103860004A4A116048490988462906DB46490988C1
:10387000692902DA0121454A116043490988AF29C3
:1038800008DB4149098841F27072914202DC002153
:103890003E4A11603C49098841F27072914202DD52
:1038A0000021394A11803649884253D13549097877
:1038B00002294FD136490988491C354A11801146E1
:1038C0000988002906DD11460988232902DA012129
:1038D0002E4A11602E490988232906DB2C490988C4
:1038E000462902DA0021294A116029490988462916
:1038F00006DB27490988692902DA0121234A116078
:1039000023490988692906DB214909888C2902DABB
:1039100000211E4A11601E4909888C2906DB1C49BA
:103920000988AF2902DA0121184A1160184909886B
:10393000AF2907DB16490988B1F57A6F02DC00214F
:10394000124A116012490988B1F57A6F02DD00212F
:103950000F4A118070470000F80200201401002077
:10396000150100206C0000207803002016010020C3
:103970001701002038030020B80100202C08004067
:10398000B8030020B6010020180100209401224253
:103990001A0100200246002031B1042907D008296D
:1039A00008D00C290CD108E01368586B09E01368A3
:1039B000986B06E01368D86B03E01368186C00E09E
:1039C00000BF00BF7047704710B504460CB9012016
:1039D00010BDA06900B100E000BF94F8390028B91B
:1039E000002084F83800204600F028F8242084F8CD
:1039F00039002068C06820F400502168C860204663
:103A000001F0F0FD2068006920F490402168086111
:103A10002068406920F02A00216848612068C06859
:103A200040F400502168C8600020E063202084F842
:103A3000390084F83A000020CAE7000010B586B0CB
:103A4000044625492068884244D100BF2348806944
:103A500040F00400214988610846806900F00400B4
:103A6000019000BF00BF00BF0846806940F480405D
:103A700088610846806900F48040019000BF00BF63
:103A800000BF0846806940F00100886108468069EF
:103A900000F00100019000BF00BF48150290022015
:103AA0000390012004900320059002A90C48FEF722
:103AB00021FC4FF4806002900020039002A9084886
:103AC000FEF718FC2520FEF733FE002201212520F9
:103AD000FEF73EFE06B010BD003801400010024067
:103AE0000008014010B5034693F83A0020282FD172
:103AF00001B10AB9012010BD00BF93F838000128B8
:103B000001D10220F7E7012083F8380000BF996255
:103B10009A85DA850020D863222083F83A0000BF16
:103B2000002083F8380000BF1868C06840F4807037
:103B30001C68E0601868406940F001001C68606122
:103B40001868C06840F020001C68E0600020D2E7E0
:103B50000220D0E72DE9F84304460D4616461F46DD
:103B60004FF0000994F8390020285CD105B116B94E
:103B70000120BDE8F88300BF94F83800012801D186
:103B80000220F6E7012084F8380000BF0020E0633F
:103B9000212084F83900FEF75BFD8146A684E68487
:103BA0002BE0E08C401EE084A068B0F5805F16D169
:103BB0004B46002280212046009701F0E3FD08B12A
:103BC0000320D6E7A846B8F80000C0F30800216833
:103BD0004860206908B9AD1C0FE06D1C0DE04B4634
:103BE000002280212046009701F0CCFD08B103207F
:103BF000BFE715F8010B21684860E08C0028D0D1A0
:103C00004B46002240212046009701F0BBFD08B141
:103C10000320AEE7202084F8390000BF002084F89C
:103C2000380000BFA5E70220A3E700BFFEE770470A
:103C300010B50748008804F0EBFA0649086006480A
:103C40004860002088604FF08240C86010BD0000CE
:103C500066000020780C00200000F04100B585B01F
:103C600000BF1F48806940F004001D498861084674
:103C7000806900F00400009000BF00BF00BF08464C
:103C8000806940F0080088610846806900F00800FB
:103C9000009000BF00BF00BF0846806940F01000E0
:103CA00088610846806900F01000009000BF00BFE6
:103CB0004FF4124001900020029001200390032055
:103CC000049001A90748FEF715FB01A90648FEF775
:103CD00011FB01A90548FEF70DFB05B000BD000072
:103CE0000010024000080140000C0140001001409B
:103CF00070B504461C4801681C48006804F004F9CB
:103D00001A4908601A4801681848006804F0FCF86D
:103D1000054629461548006804F064F9154908600D
:103D200015480168204604F0C3FB064611480168A7
:103D3000304604F0B5FA05460F480168284604F0FD
:103D4000E3F804460B4801684FF07E5004F0B0FBE6
:103D5000054606480168284604F0A2FA03490860AF
:103D600005480460204670BD900100208C010020B1
:103D700094010020980100208801002070B50446BD
:103D80001C4801681C48006804F0BEF81A49086025
:103D90001A4801681848006804F0B6F80546294634
:103DA0001548006804F01EF91549086015480168B7
:103DB000204604F07DFB064611480168304604F0B9
:103DC0006FFA05460F480168284604F09DF804463E
:103DD0000B4801684FF07E5004F06AFB0546064828
:103DE0000168284604F05CFA03490860054804604D
:103DF000204670BDA8010020A4010020AC010020D5
:103E0000B0010020A001002000B585B000BF2F4800
:103E1000806940F010002D4988610846806900F0F3
:103E20001000009000BF00BF4FF4A060019001207F
:103E3000029003900320049001A92548FEF75AFA46
:103E4000012211022248FEF7FDFB012291022048C7
:103E5000FEF7F8FB00201F49086000BF1B4880697F
:103E600040F00400194988610846806900F00400A8
:103E7000009000BF00BF00BF0846806940F02000EE
:103E800088610846806900F02000009000BF00BFF4
:103E9000881501900120029003900320049001A94D
:103EA0000D48FEF727FA0420019001A90B48FEF700
:103EB00021FA012211020848FEF7C4FB0122042165
:103EC0000648FEF7BFFB05B000BD00000010024031
:103ED00000100140A80122420008014000140140E6
:103EE00000B585B000BF0E48806940F010000C4955
:103EF00088610846806900F01000009000BF00BF94
:103F0000402001900120029003900320049001A919
:103F10000448FEF7EFF900200349086005B000BD32
:103F200000100240001001409801224200BFFEE74D
:103F300010B5E748008800F4005000287ED0E5481E
:103F40008078062846D1E348C078832842D1E148EA
:103F5000007900283ED1DF48407967283AD1DD4812
:103F60008079012836D1DB48C07998BBD948007ADE
:103F700002282FD1FCF750FE00215020FCF7A0FEB4
:103F8000D5480088D5490880D3484088D44908805E
:103F9000D1488088D34908805020CF49888408467A
:103FA000008881B20220FCF7F7FFCB48808881B2FD
:103FB0002420FCF7F1FFC848008881B20420FCF7F8
:103FC000EBFFC548808881B22620FCF7E5FF002082
:103FD000BF490880BF488078062848D1BD48C078CE
:103FE000832844D1BB480079002840D1B9484079A2
:103FF00067283CD1B7488079012838D1B548C079C5
:10400000A8BBB448007A032831D1FCF705FE002193
:104010005120FCF755FEB048C088B0490880AE4832
:104020000089AF490880AC484089AE4908805120DA
:10403000A94988840846C08881B200E044E1022092
:10404000FCF7AAFFA448408981B22420FCF7A4FF12
:10405000A148C08881B20420FCF79EFF9E48408999
:1040600081B22620FCF798FF0020994908809948E2
:104070008078062846D19748C078832842D1954851
:10408000007900283ED19348407967283AD1914879
:104090008079012836D18F48C07998BB8D48007A45
:1040A00004282FD1FCF7B8FD00215220FCF708FEB0
:1040B00089488089894908808748C089884908805B
:1040C0008548008A874908805220834988840846A9
:1040D000808981B20220FCF75FFF7F48008A81B2AD
:1040E0002420FCF759FF7C48808981B20420FCF72A
:1040F00053FF7948008A81B22620FCF74DFF00204B
:104100007349088073488078062847D17148C07881
:10411000832843D16F480079F0BB6E484079672807
:104120003CD16C488079012838D16A48C07998BB65
:104130006848007A052831D1FCF76EFD0021532034
:10414000FCF7BEFD6448408A644908806248808A62
:10415000634908806048C08A6249088053205E49EC
:1041600088840846408A81B20220FCF715FF5A482D
:10417000C08A81B22420FCF70FFF5748408A81B2E1
:104180000420FCF709FF5448C08A81B22620FCF7BE
:1041900003FF00204E4900E000E008804D48807891
:1041A000062847D14B48C078832843D14948007935
:1041B000F0BB4848407967283CD1464880790128BF
:1041C00038D14448C07998BB4248007A062831D19A
:1041D000FCF722FD00215420FCF772FD3E48008BC5
:1041E0003E4908803C48408B3D4908803A48808BD6
:1041F0003C4908805420384988840846008B81B2A5
:104200000220FCF7C9FE3448808B81B22420FCF7E1
:10421000C3FE3148008B81B20420FCF7BDFE2E485E
:10422000808B81B22620FCF7B7FE0020284900E0F1
:1042300000E0088027488078062847D12548C078C4
:10424000832843D123480079F0BB2248407967286E
:104250003CD120488079012838D11E48C07998BBCC
:104260001C48007A072831D1FCF7D6FC00215520E4
:10427000FCF726FD1848C08B184908801648008CAA
:10428000174908801448408C164908805520124967
:1042900088840846C08B81B20220FCF77DFE0E4860
:1042A000408C81B22420FCF777FE0B48C08B81B292
:1042B0000420FCF771FE0848408C81B22620FCF7F0
:1042C0006BFE0020024900E000E0088010BD000005
:1042D00038000020740200207000002066000020DA
:1042E000680000206A000020024800880249088017
:1042F00070470000C2850008B801002010B51021E9
:104300001348FEF797F9012814D10A2001F0D6FBD3
:1043100010210F48FEF78EF9012817D10D480078BB
:10432000A0B901200B490870132140F21510FCF7C9
:10433000C7FC0BE007480078012807D10020054999
:104340000870002140F21510FCF7BAFC10BD000007
:10435000000C0140C401002010B54948007800F06D
:104360000100002875D04748006803F019FF80B2AB
:1043700045490988884240DA4248006803F010FF46
:1043800081B241480088401F814229DA01203F491B
:1043900008703F480078012819D13E48007800F0A5
:1043A00031F9044603F034FF3B49086000203849E6
:1043B00008703948006803F0F3FE84B2204600F02C
:1043C000B5F83648008803F023FF334908603248C7
:1043D000006803F0E5FE84B2204600F03DFA4DE0AF
:1043E0002848006803F0DCFE81B227480088401F9F
:1043F000814243DB01F0C8FA40E00020284908610F
:1044000048612048006803F0CBFE80B21E4909884D
:10441000401A022802DC01F0D9FA2FE0194800689E
:1044200003F0BEFE80B218490988401A02280DDD4B
:104430001448006803F0B4FE80B213490988401A9A
:10444000052803DA01F0AEF818E002E001F07AF88E
:1044500014E0002012498861086148611148007821
:104460000C490870002009490870012008490870AB
:1044700040F29A2009490880FCF71AFC10BD0000A0
:104480006D0000204800002066000020810100200F
:1044900083010020800100209C010020B801002041
:1044A000780C00206A00002000B589B000BF1648D3
:1044B000806940F00800144988610846806900F06E
:1044C0000800009000BF00BFE82005900120069082
:1044D00007900320089005A90C48FDF70BFF10205A
:1044E000019000200290012003900320049001A974
:1044F0000648FDF7FFFE0120054908600020054938
:10450000C1F8940109B000BD00100240000C014048
:104510009881214200802142024800880249088097
:1045200070470000C4850008B801002010B504469B
:104530001E20FEF7FDF8FCF781FE012027490860E8
:1045400026E001F0DDF90F2001F0B8FA24480068F8
:10455000401C234908600846007800F0010020B99B
:1045600020480088401E1F4908801F480088401CC2
:104570001D4908801D48007800F044F81949098851
:10458000884205DD1948007800F03CF8154908809C
:104590001748006803F004FE81B2164800880F38FF
:1045A000814205DC1448007800F001000028C8D1E1
:1045B0000E48007800F026F80A490988884205DD8F
:1045C0000A48007800F01EF8064908800B480C499C
:1045D000486000200449088010BD000098812142F5
:1045E000BC010020B8010020C00100208001002093
:1045F00048000020660000206D00002000003041CF
:10460000780C002001460E292FD2DFE801F02E079A
:104610000A0D101316191C1F2225282B154A108865
:1046200026E0154A108823E0144A108820E0144A36
:1046300010881DE0134A10881AE0134A108817E00A
:10464000124A108814E0124A108811E0114A1088AA
:104650000EE0114A10880BE0104A108808E0104A5A
:10466000108805E00F4A108802E0024A108800BF57
:1046700000BF7047C6850008C8850008CA850008C5
:10468000CC850008CE850008D0850008D2850008BA
:10469000D4850008D6850008D8850008DA8500088A
:1046A000DC850008DE850008704700002DE9FC412C
:1046B00000211F48006803F0BFFE37D81D491E487F
:1046C000006803F021FC044619480168204603F005
:1046D000B3FE1FD219491648006803F0E1FD0746F2
:1046E00015480168384603F07DFC0646144903F07E
:1046F000D4FE054603F054FD84B24FF48060562189
:104700004FF4E4732246CDE90010991F8020FCF796
:104710008FFA0BE04FF4806056214FF4E4732D22A2
:10472000CDE90010991F8020FCF782FABDE8FC81DA
:10473000440000200000A04050000020000024425F
:104740000000AC422DE9F84F4FF0000BDA4640E094
:104750000A20FDF79FF9044603F05AFD83465846A8
:1047600003F0A6FB06464FF066321F4B03F0B8F984
:10477000044600221D4B03F0B3F9804603F064F8B1
:1047800083461B480168584603F092FE8346194849
:104790000168584603F026FC8346594616480068CF
:1047A00003F07EFD044615480168204603F0ACFB8B
:1047B00083460021584603F03FFD01D24FF0000B25
:1047C0005946009803F0A0FB00900AF1010000F0A8
:1047D000FF0ABAF1140FBBDB0949009803F002FC91
:1047E00000900098BDE8F88F66664A3F00408F4011
:1047F000B4850008B88500085C0000206000002037
:104800000000A0412DE9F05F04460E4631462068C5
:1048100003F04EFE0546D4E9040103F049FE80464C
:104820002069606125614146E06803F039FD8146F9
:10483000A169A06803F034FD82462946606803F050
:104840002FFD8346514603F05FFB0746494603F0C0
:104850005BFBBDE8F09F000070B5044600204849AE
:104860000880FCF71BFA012046490860FCF7E6FCCB
:10487000454801684548FFF7C5FF454908600846B7
:104880000068FFF77BFA42490860424940480068E7
:1048900003F0D2FD03D23F483D49086010E03E4896
:1048A000008803F0B5FC054639480168284603F046
:1048B000C3FD05D23848008803F0AAFC34490860DB
:1048C00033480168334803F0F3FD3149086020465E
:1048D00003F09EFC05462E480168284603F0ACFD17
:1048E00005D2204603F094FC2949086041E026489F
:1048F000006803F055FC81B22848008814388142D2
:1049000037DA012001F0DAF825480088401C2449F4
:10491000088008460088C82190FBF1F201FB1200D4
:1049200038B94FF07E511F48006803F0C1FD1D49A2
:1049300008601C4801681648006803F0E5FA14494D
:10494000086019491748006803F076FC02D216483F
:1049500014490860204603F05BFC05460C480168DA
:10496000284603F069FD04D2204603F051FC0849B3
:1049700008600748006803F013FC0C49088070BD0C
:10498000760100209881214248000020780C002008
:10499000C801002000003444DE85000866000020C5
:1049A000B401002084010020000048C3B8010020A9
:1049B00008B508490968C9084FF47A72B1FBF2F1E9
:1049C0004143009100BF00BF00994A1E0092002998
:1049D000F9D108BD1C00002070B5FCF7FBFAC048F7
:1049E000008800F4005000287ED0BE488078082857
:1049F00029D1BC48C078832825D1BA48007910BB9A
:104A0000B848407978281ED1B648807902281AD152
:104A1000B448C079B8B9B348007AA0B9B148407A6F
:104A2000D82810D1AF48807A29280CD1FCF7F4F8A7
:104A30001A20FCF797FB00F07BF90120AA490870C7
:104A40000020A7490880A7488078082829D1A548D0
:104A5000C078832825D1A348007910BBA1484079AC
:104A600078281ED19F48807902281AD19D48C079A4
:104A7000B8B99C48007AA0B99A48407A042810D165
:104A80009848807AD2280CD1FCF7C6F82720FCF78A
:104A900069FB00F04DF9012093490870002090490E
:104AA00008809048807806285BD18E48C07883289B
:104AB00057D18C480079012853D18A484079202861
:104AC0004FD18848807901284BD18649087A03F074
:104AD0009FFB05468349C87903F09AFB06464FF0D1
:104AE000874103F0DDFB00E0F4E00446294603F0D3
:104AF0000BFA7E490860FCF78FF87D4801687B4817
:104B0000006803F0D5FC04467A4903F095FC25D2F1
:104B100076480068764908600120774908700021CE
:104B20007648006803F088FC07D27448016874482E
:104B3000006803F0BDFC724908606E496B4800686C
:104B400003F07AFC07D800206849086000214FF480
:104B50009070FCF721FA0020654908600020604948
:104B6000088060488078062816D15E48C07883287F
:104B700012D15C48007978B95A48407944280BD161
:104B800058488079012807D15648C0795A2803D15E
:104B90005448007A5A2802D05A48007888B35148BD
:104BA0008078062819D14F48C078832815D14D4800
:104BB000007990B94B48407944280ED14948807912
:104BC00001280AD14748C0795A2806D14548007AB9
:104BD0005A2802D10020424908804B480078401CE6
:104BE00049490870002047490870FCF715F8002073
:104BF000464908704448007800F001014620FCF75F
:104C00005FF838488078062816D13648C07883285F
:104C100012D13448007978B93248407940280BD114
:104C200030488079012807D12E48C0795A2803D10D
:104C30002C48007A5A2802D035480078F0B3294829
:104C40008078062819D12748C078832815D12548AF
:104C5000007990B92348407940280ED121488079C5
:104C600001280AD11F48C0795A2806D11D48007A68
:104C70005A2802D100201A49088026480078401C92
:104C800024490870002022490870FBF7C5FF19214C
:104C90002148FBF7CAFB1F48007800F001014220C1
:104CA000FCF70EF81D48008800B21D49C8841D4855
:104CB000008800B20885FEF7BAFF00E008E01B227A
:104CC0001749194800F0D4F8002008B117490860C6
:104CD000FCF724FEFFF72CF900200149088070BD85
:104CE00038000020740200204E000020F400002054
:104CF000F80000200000F041F000002048000020F3
:104D0000580000203B0000206C00002075010020AE
:104D10003C0000206D000020F80B00206600002001
:104D2000700000206A00002000F8070884010020BD
:104D300070B501F03BFEFEF77AFF1B2239493A4875
:104D400000F082F801F04CFE0024002509E035480F
:104D500030F81400354921F81500601CC4B2681CF5
:104D6000C5B2032CF3DB0324002509E02D4830F8FD
:104D700014002F4921F81500601CC4B2681CC5B28C
:104D8000062CF3DB0624002509E0264830F8140041
:104D9000284921F81500601CC4B2681CC5B2092C52
:104DA000F3DB0924002509E01E4830F814002249ED
:104DB00021F81500601CC4B2681CC5B20C2CF3DBD2
:104DC0000C24002509E0174830F814001B4921F88D
:104DD0001500601CC4B2681CC5B20F2CF3DB0F2495
:104DE000002509E00F4830F81400154921F8150096
:104DF000601CC4B2681CC5B2122CF3DB00240DE0A9
:104E0000084A32F8142091B20E4A32F81400FCF726
:104E1000C3F80A2000F052FE601CC4B2122CEFDB73
:104E200070BD00007000002000F807081E0100207F
:104E3000240100202A01002030010020360100203A
:104E40003C0100204201002030B503460C461546C7
:104E5000002207E0184600F008F824F812009B1C16
:104E6000501C82B2AA42F5DB30BD0146088870476B
:104E70002DE9F05F80468A461746B8F1006F02D3ED
:104E80003A48804501D3BDE8F09FFDF7E3F9A8F16A
:104E9000006B4FEADB25CBF34909C9F58064A742D3
:104EA00000DC3C465CE04FF0006101EBC5204A1499
:104EB0002F49FFF7C9FF00260BE009EB06002C493C
:104EC00031F810004FF6FF71884200D003E0701CEB
:104ED00086B2A642F1DB00BFA64225DA4FF00061A0
:104EE00001EBC520FCF7B2F94CF25030FCF714FA94
:104EF0002048006920F002001E490861002608E0F1
:104F00003AF8160006EB0901194A22F81100701C44
:104F100086B2A642F4DB4FF0006101EBC5204A14D3
:104F2000134900F029F808E04CF25030FCF7F4F98E
:104F300022465146404600F01FF8A74200D110E03B
:104F40006D1C4FF000090AEB440A08EB4408381BBB
:104F500087B2B7F5806F02DD4FF4806400E03C4615
:104F6000A1E700BFFDF714F900BF8CE700000808B7
:104F7000F8030020002002402DE9F04104460E46CF
:104F8000174600250AE036F815C062460023214680
:104F90000120FDF707F9A41C681C85B2BD42F2DBB5
:104FA000BDE8F08170B54648807806287ED1444837
:104FB000C0788328FAD14248007900287ED1404841
:104FC00040796C287AD13E488079012876D13C48D6
:104FD000C079002872D13A48007A01286ED1FBF7D7
:104FE0001BFE002400250AE0364830F8150000B208
:104FF000354921F81400601CC4B2681CC5B2032CEA
:10500000F2DB032400250AE0304830F8150000B236
:105010002D4921F81400601CC4B2681CC5B2062CCE
:10502000F2DB062400250AE0294830F8150000B21A
:10503000254921F81400601CC4B2681CC5B2092CB3
:10504000F2DB092400250AE0224830F8150000B2FE
:105050001D4921F81400601CC4B2681CC5B20C2C98
:10506000F2DB0C2400250AE01B4830F8150000B2E2
:10507000154921F81400601CC4B2681CC5B20F2C7D
:10508000F2DB0F2400250AE0144830F8150000B2C6
:105090000D4921F81400601CC4B2681CC5B2122C62
:1050A000F2DB01F083FCFEF7C2FD00E006E01B220C
:1050B00005490B48FFF7DCFE01F092FC70BD0000D3
:1050C000740200201E010020700000202401002036
:1050D0002A01002030010020360100203C01002080
:1050E00000F8070830B58FB0054600240120059070
:1050F000000406900020079002200C90C1030D913F
:105100000E9505A8FDF7DCFD04460CB100BFFEE7D7
:105110000F20009002200190002002904FF4806048
:1051200003900020049002216846FDF793FC04469A
:105130000CB100BFFEE70FB030BD10B502F074F93E
:10514000012801D001F0B4FEFDF788FA10BD00007F
:105150001148006840F001000F49086008464068A7
:105160000E4908400C494860084600680C49084050
:10517000094908600846006820F480200860084655
:10518000406820F4FE0048604FF41F008860C803A8
:105190000449086070470000001002400000FFF85A
:1051A000FFFFF6FE08ED00E010B50248FEF7FCF840
:1051B00010BD0000F802002070B505460C464FF007
:1051C0008040074908600846446000218160C5604E
:1051D0000161FDF7D7FF0248FEF742F870BD0000FD
:1051E000F802002010B50248FEF7DEF810BD0000FE
:1051F0007803002070B505460C460748074908604B
:105200000846446000218160C5600161FDF7BAFF76
:105210000248FEF725F870BD000400407803002026
:1052200010B50248FEF7C0F810BD0000380300209A
:1052300070B504460D46134813490860084645609A
:1052400000218160C4600161FEF7FEF960200F4912
:105250000860204604EBD07149100C4A51600020D0
:105260001146886004220848FEF76AF90648FDF7EF
:10527000F7FF002201211E20FDF76AFA1E20FDF72C
:1052800057FA70BD00080040380300205C0C002075
:1052900010B50248FEF788F810BD0000B8030020E2
:1052A00070B505460C460748074908600846446043
:1052B00000218160C5600161FDF764FF0248FDF7D0
:1052C000CFFF70BD000C0040B803002010B502688D
:1052D000204B98420ED0204B98420BD0B0F1804F1B
:1052E00008D01E4B984205D01D4B984202D01D4B52
:1052F000984203D122F070024B681A43154B984232
:105300000ED0154B98420BD0B0F1804F08D0134B04
:10531000984205D0124B984202D0124B984203D1CA
:1053200022F44072CB681A4322F080034C6943EAAE
:10533000040202608B68C3620B688362054B98426B
:1053400002D0054B984201D10B69036301234361ED
:1053500010BD0000002C014000340140000400405A
:1053600000080040000C004030B501F01F0501248A
:1053700004FA05F3046A9C430462046A01F01F0501
:1053800002FA05F52C43046230BD000030B5056A11
:1053900025F001050562026A4368846924F07004FF
:1053A00024F003040D682C4322F002028D682A4386
:1053B000104DA84200D103E00F4DA84206D100BF16
:1053C00022F00802CD682A4322F00402094DA842C7
:1053D00002D0094DA84207D123F4807323F400734F
:1053E0004D692B438D692B43436084614D68456350
:1053F000026230BD002C01400034014030B5056A26
:1054000025F010050562026A4368846924F4E044CB
:1054100024F440740D6844EA052422F020028D68CB
:1054200042EA0512124DA84200D103E0114DA842F4
:1054300007D100BF22F08002CD6842EA051222F0B7
:1054400040020B4DA84202D00A4DA84209D123F4D4
:10545000806323F400634D6943EA85038D6943EA61
:105460008503436084614D688563026230BD00003E
:10547000002C01400034014030B5056A25F48075E8
:105480000562026A4368C46924F0700424F00304CE
:105490000D682C4322F400728D6842EA0522124DF9
:1054A000A84200D103E0114DA84207D100BF22F469
:1054B0000062CD6842EA052222F480620A4DA842C9
:1054C00002D00A4DA84209D123F4805323F400539B
:1054D0004D6943EA05138D6943EA05134360C461CE
:1054E0004D68C563026230BD002C014000340140AC
:1054F00030B5056A25F480550562036A4468C269BF
:1055000022F4E04222F440720D6842EA052223F4BC
:1055100000538D6843EA0533084DA84202D0084D78
:10552000A84204D124F480444D6944EA85144460BF
:10553000C2614D680564036230BD0000002C01406B
:105540000034014010B500201149086040F29A2053
:105550001049088000201049087010490860FBF7C6
:105560006DFEFEF7C1FE012000F0A8FA0C4800888D
:10557000401C0B4908800846008840F6B831884234
:1055800005DB0846064908800120FBF737F910BD06
:1055900084010020B801002081010020988121426F
:1055A0007601002010B500200949086009490880EB
:1055B00009490870FBF772FB40F29A2007490880FE
:1055C000002007490860FBF739FEFEF78DFE10BD8D
:1055D000840100207601002081010020B801002014
:1055E0009881214270B504462168096921F440512F
:1055F000E2681143226811612269A168114362695E
:1056000041EA02052168C96841F20C6291432943CD
:105610002268D1602168496921F44071A26911436F
:1056200022685161564A2168914254D1FDF7EEFA41
:1056300000EBC00101EB001162689200B1FBF2F1D6
:1056400000EBC00202EB001263689B00B2FBF3F2B6
:105650006423B2FBF3F202EBC20303EB0212A1EBF1
:105660008201322202EB01116422B1FBF2F101F05E
:10567000F00100EBC00202EB001263689B00B2FB7A
:10568000F3F26423B2FBF3F201EB021200EBC00170
:1056900001EB001163689B00B1FBF3F100EBC00369
:1056A00003EB00136668B600B3FBF6F36426B3FBA6
:1056B000F6F303EBC30606EB0313A1EB83013223DE
:1056C00003EB01116423B1FBF3F101F00F0111446D
:1056D0002268916053E0FDF789FA00EBC00101EB0D
:1056E000001162689200B1FBF2F100EBC00202EB24
:1056F000001263689B00B2FBF3F26423B2FBF3F287
:1057000002EBC20303EB0212A1EB8201322202EB95
:1057100001116422B1FBF2F101F0F00100EBC002D3
:1057200002EB001263689B00B2FBF3F26423B2FB4E
:10573000F3F201EB021200EBC00101EB0011636810
:105740009B00B1FBF3F100EBC00303EB00136668B1
:10575000B600B3FBF6F36426B3FBF6F303EBC30624
:1057600006EB0313A1EB8301322303EB0111642346
:10577000B1FBF3F101F00F0111442268916070BD9B
:10578000003801402DE9F04104460D461746984681
:10579000069E21E0701CF8B12EB1FCF759FFA0EB7A
:1057A0000800B04218D92068C06820F4D070216881
:1057B000C8602068406920F001002168486120200D
:1057C00084F8390084F83A0000BF002084F83800DB
:1057D00000BF0320BDE8F081206800682840A8428F
:1057E00001D1012000E00020B842D3D00020F1E731
:1057F00038B53B4800680068C0F3401000286DD001
:1058000038480068C4B23848008800F4004010BB33
:105810003548008800F4804098B1A52C03D00020C2
:105820003149088017E03048008840F400402E4994
:1058300008802E4844700846008840F00100088027
:1058400009E05A2C07D12848008840F480402649B6
:105850000880264804702448008800F4004030B3D3
:1058600021480088C0F30D0020490C541E480088D0
:10587000401C1D49088008460088C0F30C011B48E5
:105880008078801C814212DD002505E01748405DCC
:1058900017494855681CC5B214488078C01CA842F6
:1058A000F4DC1148008840F400500F4908800E488D
:1058B000008800F4005088B10E48006870B1694655
:1058C0000C48006801F008FD009838B14FF0805096
:1058D00009490860BFF34F8FBFF36F8F38BD0000D9
:1058E00088020020043801403800002060020020B7
:1058F000740200201000002004ED00E000BFFEE76D
:1059000010B51A48007800F0010018B9184800785E
:10591000012824D1174801681748006802F08CFC60
:1059200006D81648007818B90120154908601BE010
:1059300014491048006802F0BBFD04460E48016897
:10594000204602F079FC06D201200C4908700020A4
:105950000B49086008E000200849087004E00020B6
:10596000064908700649086010BD00006C00002060
:105970003E00002050000020440000204200002093
:10598000980122420000204110B500200A49086019
:105990000A490880FBF782F900200949087040F2A3
:1059A0009A2008490880012007490860FBF746FC57
:1059B000FEF7B2FD10BD000084010020760100203A
:1059C00081010020B80100209881214210B50020FB
:1059D000074908600749088007490870FBF75EF926
:1059E00040F29A2005490880FBF762F910BD0000DB
:1059F000840100207601002081010020B8010020F0
:105A000002480068C0F30220704700000CED00E07F
:105A100010B5002804DB0A07130E054A135406E0EC
:105A20000A07140E034A00F00F031B1FD45410BDC5
:105A300000E400E018ED00E000BF7047002416E02D
:105A40000B48006878B100235A1E194608480068C0
:105A500001F064FA0446012C09D1FEF7BDFF0020D5
:105A60000449088003E014B9012000F027F8E7E7B3
:105A7000100000203800002070B504460420FDF717
:105A800051FB0C48046025464FF47A7045430120D1
:105A9000094908804FF0E020006940F002004FF013
:105AA000E021086108464561006940F00100086195
:105AB00070BD00002C0000203000002070B50446AE
:105AC00001F0B2FC012810D00B480088844206D3B4
:105AD00009480088B4FBF0F5284601F011F80648A3
